{
  "address": "0xA51c1fc2f0D1a1b8494Ed1FE312d7C3a78Ed91C0",
  "abi": [
    {
      "inputs": [
        {
          "internalType": "address",
          "name": "implementationContract",
          "type": "address"
        }
      ],
      "stateMutability": "nonpayable",
      "type": "constructor"
    },
    {
      "anonymous": false,
      "inputs": [
        {
          "indexed": false,
          "internalType": "address",
          "name": "previousAdmin",
          "type": "address"
        },
        {
          "indexed": false,
          "internalType": "address",
          "name": "newAdmin",
          "type": "address"
        }
      ],
      "name": "AdminChanged",
      "type": "event"
    },
    {
      "anonymous": false,
      "inputs": [
        {
          "indexed": false,
          "internalType": "address",
          "name": "implementation",
          "type": "address"
        }
      ],
      "name": "Upgraded",
      "type": "event"
    },
    {
      "stateMutability": "payable",
      "type": "fallback"
    },
    {
      "inputs": [],
      "name": "admin",
      "outputs": [
        {
          "internalType": "address",
          "name": "",
          "type": "address"
        }
      ],
      "stateMutability": "view",
      "type": "function"
    },
    {
      "inputs": [
        {
          "internalType": "address",
          "name": "newAdmin",
          "type": "address"
        }
      ],
      "name": "changeAdmin",
      "outputs": [],
      "stateMutability": "nonpayable",
      "type": "function"
    },
    {
      "inputs": [],
      "name": "implementation",
      "outputs": [
        {
          "internalType": "address",
          "name": "",
          "type": "address"
        }
      ],
      "stateMutability": "view",
      "type": "function"
    },
    {
      "inputs": [
        {
          "internalType": "address",
          "name": "newImplementation",
          "type": "address"
        }
      ],
      "name": "upgradeTo",
      "outputs": [],
      "stateMutability": "nonpayable",
      "type": "function"
    },
    {
      "inputs": [
        {
          "internalType": "address",
          "name": "newImplementation",
          "type": "address"
        },
        {
          "internalType": "bytes",
          "name": "data",
          "type": "bytes"
        }
      ],
      "name": "upgradeToAndCall",
      "outputs": [],
      "stateMutability": "payable",
      "type": "function"
    }
  ],
  "transactionHash": "0x47f9e2944fe5300ed1aa57de8cf3cab75d7cf9c95a22d798f823995ec84c19c2",
  "args": [
    "0xa513E6E4b8f2a923D98304ec87F64353C4D5C853"
  ],
  "numDeployments": 1,
  "bytecode": "0x608060405234801561001057600080fd5b5060405161083d38038061083d8339818101604052602081101561003357600080fd5b5051808061004081610051565b5061004a336100c3565b50506100ed565b610064816100e760201b61042a1760201c565b61009f5760405162461bcd60e51b815260040180806020018281038252603b815260200180610802603b913960400191505060405180910390fd5b7f7050c9e0f4ca769c69bd3a8ef740bc37934f8e2c036e5a723fd8ee048ed3f8c355565b7f10d6a54a4754c8869d6886b5f5d7fbfa5b4522237ea5c60d11bc4e7a1ff9390b55565b3b151590565b610706806100fc6000396000f3fe60806040526004361061005a5760003560e01c80635c60da1b116100435780635c60da1b146101315780638f2839701461016f578063f851a440146101af5761005a565b80633659cfe6146100645780634f1ef286146100a4575b6100626101c4565b005b34801561007057600080fd5b506100626004803603602081101561008757600080fd5b503573ffffffffffffffffffffffffffffffffffffffff166101de565b610062600480360360408110156100ba57600080fd5b73ffffffffffffffffffffffffffffffffffffffff82351691908101906040810160208201356401000000008111156100f257600080fd5b82018360208201111561010457600080fd5b8035906020019184600183028401116401000000008311171561012657600080fd5b509092509050610232565b34801561013d57600080fd5b50610146610309565b6040805173ffffffffffffffffffffffffffffffffffffffff9092168252519081900360200190f35b34801561017b57600080fd5b506100626004803603602081101561019257600080fd5b503573ffffffffffffffffffffffffffffffffffffffff16610318565b3480156101bb57600080fd5b50610146610420565b6101cc610430565b6101dc6101d76104c4565b6104e9565b565b6101e661050d565b73ffffffffffffffffffffffffffffffffffffffff163373ffffffffffffffffffffffffffffffffffffffff1614156102275761022281610532565b61022f565b61022f6101c4565b50565b61023a61050d565b73ffffffffffffffffffffffffffffffffffffffff163373ffffffffffffffffffffffffffffffffffffffff1614156102fc5761027683610532565b60003073ffffffffffffffffffffffffffffffffffffffff16348484604051808383808284376040519201945060009350909150508083038185875af1925050503d80600081146102e3576040519150601f19603f3d011682016040523d82523d6000602084013e6102e8565b606091505b50509050806102f657600080fd5b50610304565b6103046101c4565b505050565b60006103136104c4565b905090565b61032061050d565b73ffffffffffffffffffffffffffffffffffffffff163373ffffffffffffffffffffffffffffffffffffffff1614156102275773ffffffffffffffffffffffffffffffffffffffff81166103bf576040517f08c379a00000000000000000000000000000000000000000000000000000000081526004018080602001828103825260368152602001806106606036913960400191505060405180910390fd5b7f7e644d79422f17c01e4894b5f4f588d331ebfa28653d42ae832dc59e38c9798f6103e861050d565b6040805173ffffffffffffffffffffffffffffffffffffffff928316815291841660208301528051918290030190a161022281610587565b600061031361050d565b3b151590565b61043861050d565b73ffffffffffffffffffffffffffffffffffffffff163373ffffffffffffffffffffffffffffffffffffffff1614156104bc576040517f08c379a000000000000000000000000000000000000000000000000000000000815260040180806020018281038252603281526020018061062e6032913960400191505060405180910390fd5b6101dc6101dc565b7f7050c9e0f4ca769c69bd3a8ef740bc37934f8e2c036e5a723fd8ee048ed3f8c35490565b3660008037600080366000845af43d6000803e808015610508573d6000f35b3d6000fd5b7f10d6a54a4754c8869d6886b5f5d7fbfa5b4522237ea5c60d11bc4e7a1ff9390b5490565b61053b816105ab565b6040805173ffffffffffffffffffffffffffffffffffffffff8316815290517fbc7cd75a20ee27fd9adebab32041f755214dbc6bffa90cc0225b39da2e5c2d3b9181900360200190a150565b7f10d6a54a4754c8869d6886b5f5d7fbfa5b4522237ea5c60d11bc4e7a1ff9390b55565b6105b48161042a565b610609576040517f08c379a000000000000000000000000000000000000000000000000000000000815260040180806020018281038252603b815260200180610696603b913960400191505060405180910390fd5b7f7050c9e0f4ca769c69bd3a8ef740bc37934f8e2c036e5a723fd8ee048ed3f8c35556fe43616e6e6f742063616c6c2066616c6c6261636b2066756e6374696f6e2066726f6d207468652070726f78792061646d696e43616e6e6f74206368616e6765207468652061646d696e206f6620612070726f787920746f20746865207a65726f206164647265737343616e6e6f742073657420612070726f787920696d706c656d656e746174696f6e20746f2061206e6f6e2d636f6e74726163742061646472657373a2646970667358221220f7822260da065117b0feaa1e9e456050255bf5f9cb413f98f5951cb5b53607b664736f6c634300060c003343616e6e6f742073657420612070726f787920696d706c656d656e746174696f6e20746f2061206e6f6e2d636f6e74726163742061646472657373"
}