{
  "address": "0x43e14c5F4A07fF1158337214D6f1Ed273d4DA78c",
  "abi": [
    {
      "inputs": [],
      "stateMutability": "nonpayable",
      "type": "constructor"
    },
    {
      "inputs": [
        {
          "internalType": "address",
          "name": "target",
          "type": "address"
        }
      ],
      "name": "AddressEmptyCode",
      "type": "error"
    },
    {
      "inputs": [
        {
          "internalType": "address",
          "name": "account",
          "type": "address"
        }
      ],
      "name": "AddressInsufficientBalance",
      "type": "error"
    },
    {
      "inputs": [],
      "name": "FailedInnerCall",
      "type": "error"
    },
    {
      "inputs": [
        {
          "internalType": "address",
          "name": "token",
          "type": "address"
        }
      ],
      "name": "SafeERC20FailedOperation",
      "type": "error"
    },
    {
      "anonymous": false,
      "inputs": [
        {
          "indexed": true,
          "internalType": "address",
          "name": "l1Token",
          "type": "address"
        },
        {
          "indexed": true,
          "internalType": "address",
          "name": "l2Token",
          "type": "address"
        },
        {
          "indexed": true,
          "internalType": "address",
          "name": "from",
          "type": "address"
        },
        {
          "indexed": false,
          "internalType": "address",
          "name": "to",
          "type": "address"
        },
        {
          "indexed": false,
          "internalType": "uint256",
          "name": "amount",
          "type": "uint256"
        },
        {
          "indexed": false,
          "internalType": "bytes",
          "name": "extraData",
          "type": "bytes"
        }
      ],
      "name": "ERC20DepositInitiated",
      "type": "event"
    },
    {
      "anonymous": false,
      "inputs": [
        {
          "indexed": true,
          "internalType": "address",
          "name": "l1Token",
          "type": "address"
        },
        {
          "indexed": true,
          "internalType": "address",
          "name": "l2Token",
          "type": "address"
        },
        {
          "indexed": true,
          "internalType": "address",
          "name": "from",
          "type": "address"
        },
        {
          "indexed": false,
          "internalType": "address",
          "name": "to",
          "type": "address"
        },
        {
          "indexed": false,
          "internalType": "uint256",
          "name": "amount",
          "type": "uint256"
        },
        {
          "indexed": false,
          "internalType": "bytes",
          "name": "extraData",
          "type": "bytes"
        }
      ],
      "name": "ERC20WithdrawalFinalized",
      "type": "event"
    },
    {
      "inputs": [
        {
          "internalType": "address",
          "name": "_l1Token",
          "type": "address"
        },
        {
          "internalType": "address",
          "name": "_l2Token",
          "type": "address"
        },
        {
          "internalType": "uint256",
          "name": "_amount",
          "type": "uint256"
        },
        {
          "internalType": "uint32",
          "name": "_minGasLimit",
          "type": "uint32"
        },
        {
          "internalType": "bytes",
          "name": "_extraData",
          "type": "bytes"
        }
      ],
      "name": "depositERC20",
      "outputs": [],
      "stateMutability": "nonpayable",
      "type": "function"
    },
    {
      "inputs": [
        {
          "internalType": "address",
          "name": "_l1Token",
          "type": "address"
        },
        {
          "internalType": "address",
          "name": "_l2Token",
          "type": "address"
        },
        {
          "internalType": "address",
          "name": "_to",
          "type": "address"
        },
        {
          "internalType": "uint256",
          "name": "_amount",
          "type": "uint256"
        },
        {
          "internalType": "uint32",
          "name": "_minGasLimit",
          "type": "uint32"
        },
        {
          "internalType": "bytes",
          "name": "_extraData",
          "type": "bytes"
        }
      ],
      "name": "depositERC20To",
      "outputs": [],
      "stateMutability": "nonpayable",
      "type": "function"
    },
    {
      "inputs": [
        {
          "internalType": "address",
          "name": "",
          "type": "address"
        },
        {
          "internalType": "address",
          "name": "",
          "type": "address"
        }
      ],
      "name": "deposits",
      "outputs": [
        {
          "internalType": "uint256",
          "name": "",
          "type": "uint256"
        }
      ],
      "stateMutability": "view",
      "type": "function"
    },
    {
      "inputs": [
        {
          "internalType": "address",
          "name": "_l1Token",
          "type": "address"
        },
        {
          "internalType": "address",
          "name": "_l2Token",
          "type": "address"
        },
        {
          "internalType": "address",
          "name": "_from",
          "type": "address"
        },
        {
          "internalType": "address",
          "name": "_to",
          "type": "address"
        },
        {
          "internalType": "uint256",
          "name": "_amount",
          "type": "uint256"
        },
        {
          "internalType": "bytes",
          "name": "_extraData",
          "type": "bytes"
        }
      ],
      "name": "finalizeERC20Withdrawal",
      "outputs": [],
      "stateMutability": "nonpayable",
      "type": "function"
    },
    {
      "inputs": [],
      "name": "l1Usdc",
      "outputs": [
        {
          "internalType": "address",
          "name": "",
          "type": "address"
        }
      ],
      "stateMutability": "view",
      "type": "function"
    },
    {
      "inputs": [],
      "name": "l2TokenBridge",
      "outputs": [
        {
          "internalType": "address",
          "name": "",
          "type": "address"
        }
      ],
      "stateMutability": "view",
      "type": "function"
    },
    {
      "inputs": [],
      "name": "l2Usdc",
      "outputs": [
        {
          "internalType": "address",
          "name": "",
          "type": "address"
        }
      ],
      "stateMutability": "view",
      "type": "function"
    },
    {
      "inputs": [],
      "name": "messenger",
      "outputs": [
        {
          "internalType": "address",
          "name": "",
          "type": "address"
        }
      ],
      "stateMutability": "view",
      "type": "function"
    },
    {
      "inputs": [],
      "name": "otherBridge",
      "outputs": [
        {
          "internalType": "address",
          "name": "",
          "type": "address"
        }
      ],
      "stateMutability": "view",
      "type": "function"
    }
  ],
  "transactionHash": "0x26e2d98c2bb4c6a4a40997a1a853ac6767f7ea774e6c8b29123f75c07b24595b",
  "args": [],
  "numDeployments": 1,
  "solcInputHash": "3d0d7adddaf4f4fd823d1e193fc2b0bf",
  "bytecode": "0x608060405234801561001057600080fd5b50610d87806100206000396000f3fe608060405234801561001057600080fd5b50600436106100a35760003560e01c80638f601f6611610076578063a1b4bc041161005b578063a1b4bc041461015d578063a9f9e67514610170578063c89701a21461018357600080fd5b80638f601f661461011357806391c49bf81461014c57600080fd5b80633cb747bf146100a857806356c3b587146100d857806358a997f6146100eb578063838b252014610100575b600080fd5b6000546100bb906001600160a01b031681565b6040516001600160a01b0390911681526020015b60405180910390f35b6002546100bb906001600160a01b031681565b6100fe6100f93660046109f7565b610196565b005b6100fe61010e366004610a7a565b610228565b61013e610121366004610b10565b600460209081526000928352604080842090915290825290205481565b6040519081526020016100cf565b6001546001600160a01b03166100bb565b6003546100bb906001600160a01b031681565b6100fe61017e366004610b49565b610241565b6001546100bb906001600160a01b031681565b333b156102105760405162461bcd60e51b815260206004820152603760248201527f5374616e646172644272696467653a2066756e6374696f6e2063616e206f6e6c60448201527f792062652063616c6c65642066726f6d20616e20454f4100000000000000000060648201526084015b60405180910390fd5b61022086863333888888886104ba565b505050505050565b61023887873388888888886104ba565b50505050505050565b6000546001600160a01b0316331480156102d6575060015460005460408051636e296e4560e01b815290516001600160a01b039384169390921691636e296e45916004808201926020929091908290030181865afa1580156102a7573d6000803e3d6000fd5b505050506040513d601f19601f820116820180604052508101906102cb9190610bc2565b6001600160a01b0316145b6103525760405162461bcd60e51b815260206004820152604160248201527f5374616e646172644272696467653a2066756e6374696f6e2063616e206f6e6c60448201527f792062652063616c6c65642066726f6d20746865206f746865722062726964676064820152606560f81b608482015260a401610207565b60025487906001600160a01b0380831691161461039f5760405162461bcd60e51b815260206004820152600b60248201526a6e6f74204c31207573646360a81b6044820152606401610207565b60035487906001600160a01b038083169116146103ec5760405162461bcd60e51b815260206004820152600b60248201526a6e6f74204c32207573646360a81b6044820152606401610207565b6001600160a01b03808a166000908152600460209081526040808320938c168352929052205461041d908690610bf5565b6001600160a01b03808b166000818152600460209081526040808320948e168352939052919091209190915561045490878761073c565b866001600160a01b0316886001600160a01b03168a6001600160a01b03167f3ceee06c1e37648fcbb6ed52e17b3e1f275a1f8c7b22a84b2b84732431e046b3898989896040516104a79493929190610c31565b60405180910390a4505050505050505050565b60025488906001600160a01b038083169116146105075760405162461bcd60e51b815260206004820152600b60248201526a6e6f74204c31207573646360a81b6044820152606401610207565b60035488906001600160a01b038083169116146105545760405162461bcd60e51b815260206004820152600b60248201526a6e6f74204c32207573646360a81b6044820152606401610207565b876001600160a01b0316896001600160a01b03168b6001600160a01b03167f718594027abd4eaed59f95162563e0cc6d0e8d5b86b1c7be8b1b0ac3343d03968a8a89896040516105a79493929190610c31565b60405180910390a46105c46001600160a01b038b168930896107a0565b6001600160a01b03808b166000908152600460209081526040808320938d16835292905220546105f5908790610c64565b600460008c6001600160a01b03166001600160a01b0316815260200190815260200160002060008b6001600160a01b03166001600160a01b031681526020019081526020016000208190555060008054906101000a90046001600160a01b03166001600160a01b0316633dbb202b600160009054906101000a90046001600160a01b031663a9f9e67560e01b8c8e8d8d8d8c8c60405160240161069e9796959493929190610c77565b60408051601f198184030181529181526020820180516001600160e01b03167fffffffff000000000000000000000000000000000000000000000000000000009485161790525160e085901b90921682526106fe92918a90600401610ceb565b600060405180830381600087803b15801561071857600080fd5b505af115801561072c573d6000803e3d6000fd5b5050505050505050505050505050565b6040516001600160a01b0383811660248301526044820183905261079b91859182169063a9059cbb906064015b604051602081830303815290604052915060e01b6020820180516001600160e01b0383818316178352505050506107df565b505050565b6040516001600160a01b0384811660248301528381166044830152606482018390526107d99186918216906323b872dd90608401610769565b50505050565b60006107f46001600160a01b03841683610842565b905080516000141580156108195750808060200190518101906108179190610d3c565b155b1561079b57604051635274afe760e01b81526001600160a01b0384166004820152602401610207565b606061085083836000610859565b90505b92915050565b60608147101561087e5760405163cd78605960e01b8152306004820152602401610207565b600080856001600160a01b0316848660405161089a9190610d5e565b60006040518083038185875af1925050503d80600081146108d7576040519150601f19603f3d011682016040523d82523d6000602084013e6108dc565b606091505b50915091506108ec8683836108f8565b925050505b9392505050565b60608261090d5761090882610954565b6108f1565b815115801561092457506001600160a01b0384163b155b1561094d57604051639996b31560e01b81526001600160a01b0385166004820152602401610207565b50806108f1565b8051156109645780518082602001fd5b604051630a12f52160e11b815260040160405180910390fd5b50565b6001600160a01b038116811461097d57600080fd5b803563ffffffff811681146109a957600080fd5b919050565b60008083601f8401126109c057600080fd5b50813567ffffffffffffffff8111156109d857600080fd5b6020830191508360208285010111156109f057600080fd5b9250929050565b60008060008060008060a08789031215610a1057600080fd5b8635610a1b81610980565b95506020870135610a2b81610980565b945060408701359350610a4060608801610995565b9250608087013567ffffffffffffffff811115610a5c57600080fd5b610a6889828a016109ae565b979a9699509497509295939492505050565b600080600080600080600060c0888a031215610a9557600080fd5b8735610aa081610980565b96506020880135610ab081610980565b95506040880135610ac081610980565b945060608801359350610ad560808901610995565b925060a088013567ffffffffffffffff811115610af157600080fd5b610afd8a828b016109ae565b989b979a50959850939692959293505050565b60008060408385031215610b2357600080fd5b8235610b2e81610980565b91506020830135610b3e81610980565b809150509250929050565b600080600080600080600060c0888a031215610b6457600080fd5b8735610b6f81610980565b96506020880135610b7f81610980565b95506040880135610b8f81610980565b94506060880135610b9f81610980565b93506080880135925060a088013567ffffffffffffffff811115610af157600080fd5b600060208284031215610bd457600080fd5b81516108f181610980565b634e487b7160e01b600052601160045260246000fd5b8181038181111561085357610853610bdf565b81835281816020850137506000828201602090810191909152601f909101601f19169091010190565b6001600160a01b0385168152836020820152606060408201526000610c5a606083018486610c08565b9695505050505050565b8082018082111561085357610853610bdf565b60006001600160a01b03808a1683528089166020840152808816604084015280871660608401525084608083015260c060a0830152610cba60c083018486610c08565b9998505050505050505050565b60005b83811015610ce2578181015183820152602001610cca565b50506000910152565b6001600160a01b03841681526060602082015260008351806060840152610d19816080850160208801610cc7565b63ffffffff93909316604083015250601f91909101601f19160160800192915050565b600060208284031215610d4e57600080fd5b815180151581146108f157600080fd5b60008251610d70818460208701610cc7565b919091019291505056fea164736f6c6343000814000a",
  "devdoc": {
    "errors": {
      "AddressEmptyCode(address)": [
        {
          "details": "There's no code at `target` (it is not a contract)."
        }
      ],
      "AddressInsufficientBalance(address)": [
        {
          "details": "The ETH balance of the account is not enough to perform the operation."
        }
      ],
      "FailedInnerCall()": [
        {
          "details": "A call to an address target failed. The target may have reverted."
        }
      ],
      "SafeERC20FailedOperation(address)": [
        {
          "details": "An operation with an ERC20 token failed."
        }
      ]
    },
    "events": {
      "ERC20DepositInitiated(address,address,address,address,uint256,bytes)": {
        "custom:legacy": "@notice Emitted whenever an ERC20 deposit is initiated.",
        "params": {
          "amount": "Amount of the ERC20 deposited.",
          "extraData": "Extra data attached to the deposit.",
          "from": "Address of the depositor.",
          "l1Token": "Address of the token on L1.",
          "l2Token": "Address of the corresponding token on L2.",
          "to": "Address of the recipient on L2."
        }
      },
      "ERC20WithdrawalFinalized(address,address,address,address,uint256,bytes)": {
        "custom:legacy": "@notice Emitted whenever an ERC20 withdrawal is finalized.",
        "params": {
          "amount": "Amount of the ERC20 withdrawn.",
          "extraData": "Extra data attached to the withdrawal.",
          "from": "Address of the withdrawer.",
          "l1Token": "Address of the token on L1.",
          "l2Token": "Address of the corresponding token on L2.",
          "to": "Address of the recipient on L1."
        }
      }
    },
    "kind": "dev",
    "methods": {
      "depositERC20(address,address,uint256,uint32,bytes)": {
        "custom:legacy": "@notice Deposits some amount of ERC20 tokens into the sender's account on L2.",
        "params": {
          "_amount": "Amount of the ERC20 to deposit.",
          "_extraData": "Optional data to forward to L2. Data supplied here will not be used to                     execute any code on L2 and is only emitted as extra data for the                     convenience of off-chain tooling.",
          "_l1Token": "Address of the L1 token being deposited.",
          "_l2Token": "Address of the corresponding token on L2.",
          "_minGasLimit": "Minimum gas limit for the deposit message on L2."
        }
      },
      "depositERC20To(address,address,address,uint256,uint32,bytes)": {
        "custom:legacy": "@notice Deposits some amount of ERC20 tokens into a target account on L2.",
        "params": {
          "_amount": "Amount of the ERC20 to deposit.",
          "_extraData": "Optional data to forward to L2. Data supplied here will not be used to                     execute any code on L2 and is only emitted as extra data for the                     convenience of off-chain tooling.",
          "_l1Token": "Address of the L1 token being deposited.",
          "_l2Token": "Address of the corresponding token on L2.",
          "_minGasLimit": "Minimum gas limit for the deposit message on L2.",
          "_to": "Address of the recipient on L2."
        }
      },
      "finalizeERC20Withdrawal(address,address,address,address,uint256,bytes)": {
        "custom:legacy": "@notice Finalizes a withdrawal of ERC20 tokens from L2.",
        "params": {
          "_amount": "Amount of the ERC20 to withdraw.",
          "_extraData": "Optional data forwarded from L2.",
          "_from": "Address of the withdrawer on L2.",
          "_l1Token": "Address of the token on L1.",
          "_l2Token": "Address of the corresponding token on L2.",
          "_to": "Address of the recipient on L1."
        }
      },
      "l2TokenBridge()": {
        "custom:legacy": "@notice Retrieves the access of the corresponding L2 bridge contract.",
        "returns": {
          "_0": "Address of the corresponding L2 bridge contract."
        }
      }
    },
    "version": 1
  },
  "userdoc": {
    "kind": "user",
    "methods": {},
    "version": 1
  },
  "storageLayout": {
    "storage": [
      {
        "astId": 2785,
        "contract": "contracts/L1/L1UsdcBridge.sol:L1UsdcBridge",
        "label": "messenger",
        "offset": 0,
        "slot": "0",
        "type": "t_address"
      },
      {
        "astId": 2787,
        "contract": "contracts/L1/L1UsdcBridge.sol:L1UsdcBridge",
        "label": "otherBridge",
        "offset": 0,
        "slot": "1",
        "type": "t_address"
      },
      {
        "astId": 2789,
        "contract": "contracts/L1/L1UsdcBridge.sol:L1UsdcBridge",
        "label": "l1Usdc",
        "offset": 0,
        "slot": "2",
        "type": "t_address"
      },
      {
        "astId": 2791,
        "contract": "contracts/L1/L1UsdcBridge.sol:L1UsdcBridge",
        "label": "l2Usdc",
        "offset": 0,
        "slot": "3",
        "type": "t_address"
      },
      {
        "astId": 1671,
        "contract": "contracts/L1/L1UsdcBridge.sol:L1UsdcBridge",
        "label": "deposits",
        "offset": 0,
        "slot": "4",
        "type": "t_mapping(t_address,t_mapping(t_address,t_uint256))"
      }
    ],
    "types": {
      "t_address": {
        "encoding": "inplace",
        "label": "address",
        "numberOfBytes": "20"
      },
      "t_mapping(t_address,t_mapping(t_address,t_uint256))": {
        "encoding": "mapping",
        "key": "t_address",
        "label": "mapping(address => mapping(address => uint256))",
        "numberOfBytes": "32",
        "value": "t_mapping(t_address,t_uint256)"
      },
      "t_mapping(t_address,t_uint256)": {
        "encoding": "mapping",
        "key": "t_address",
        "label": "mapping(address => uint256)",
        "numberOfBytes": "32",
        "value": "t_uint256"
      },
      "t_uint256": {
        "encoding": "inplace",
        "label": "uint256",
        "numberOfBytes": "32"
      }
    }
  }
}