{
  "address": "0x9fE46736679d2D9a65F0992F2272dE9f3c7fa6e0",
  "abi": [
    {
      "inputs": [
        {
          "internalType": "address",
          "name": "target",
          "type": "address"
        }
      ],
      "name": "AddressEmptyCode",
      "type": "error"
    },
    {
      "inputs": [
        {
          "internalType": "address",
          "name": "account",
          "type": "address"
        }
      ],
      "name": "AddressInsufficientBalance",
      "type": "error"
    },
    {
      "inputs": [],
      "name": "FailedInnerCall",
      "type": "error"
    },
    {
      "inputs": [
        {
          "internalType": "address",
          "name": "token",
          "type": "address"
        }
      ],
      "name": "SafeERC20FailedOperation",
      "type": "error"
    },
    {
      "anonymous": false,
      "inputs": [
        {
          "indexed": true,
          "internalType": "address",
          "name": "l1Token",
          "type": "address"
        },
        {
          "indexed": true,
          "internalType": "address",
          "name": "l2Token",
          "type": "address"
        },
        {
          "indexed": true,
          "internalType": "address",
          "name": "from",
          "type": "address"
        },
        {
          "indexed": false,
          "internalType": "address",
          "name": "to",
          "type": "address"
        },
        {
          "indexed": false,
          "internalType": "uint256",
          "name": "amount",
          "type": "uint256"
        },
        {
          "indexed": false,
          "internalType": "bytes",
          "name": "extraData",
          "type": "bytes"
        }
      ],
      "name": "DepositFinalized",
      "type": "event"
    },
    {
      "anonymous": false,
      "inputs": [
        {
          "indexed": true,
          "internalType": "address",
          "name": "l1Token",
          "type": "address"
        },
        {
          "indexed": true,
          "internalType": "address",
          "name": "l2Token",
          "type": "address"
        },
        {
          "indexed": true,
          "internalType": "address",
          "name": "from",
          "type": "address"
        },
        {
          "indexed": false,
          "internalType": "address",
          "name": "to",
          "type": "address"
        },
        {
          "indexed": false,
          "internalType": "uint256",
          "name": "amount",
          "type": "uint256"
        },
        {
          "indexed": false,
          "internalType": "bytes",
          "name": "extraData",
          "type": "bytes"
        }
      ],
      "name": "WithdrawalInitiated",
      "type": "event"
    },
    {
      "inputs": [
        {
          "internalType": "address",
          "name": "_l1Token",
          "type": "address"
        },
        {
          "internalType": "address",
          "name": "_l2Token",
          "type": "address"
        },
        {
          "internalType": "address",
          "name": "_from",
          "type": "address"
        },
        {
          "internalType": "address",
          "name": "_to",
          "type": "address"
        },
        {
          "internalType": "uint256",
          "name": "_amount",
          "type": "uint256"
        },
        {
          "internalType": "bytes",
          "name": "_extraData",
          "type": "bytes"
        }
      ],
      "name": "finalizeDeposit",
      "outputs": [],
      "stateMutability": "nonpayable",
      "type": "function"
    },
    {
      "inputs": [],
      "name": "l1Usdc",
      "outputs": [
        {
          "internalType": "address",
          "name": "",
          "type": "address"
        }
      ],
      "stateMutability": "view",
      "type": "function"
    },
    {
      "inputs": [],
      "name": "l2Usdc",
      "outputs": [
        {
          "internalType": "address",
          "name": "",
          "type": "address"
        }
      ],
      "stateMutability": "view",
      "type": "function"
    },
    {
      "inputs": [],
      "name": "l2UsdcMasterMinter",
      "outputs": [
        {
          "internalType": "address",
          "name": "",
          "type": "address"
        }
      ],
      "stateMutability": "view",
      "type": "function"
    },
    {
      "inputs": [],
      "name": "messenger",
      "outputs": [
        {
          "internalType": "address",
          "name": "",
          "type": "address"
        }
      ],
      "stateMutability": "view",
      "type": "function"
    },
    {
      "inputs": [],
      "name": "otherBridge",
      "outputs": [
        {
          "internalType": "address",
          "name": "",
          "type": "address"
        }
      ],
      "stateMutability": "view",
      "type": "function"
    },
    {
      "inputs": [
        {
          "internalType": "address",
          "name": "_l2Token",
          "type": "address"
        },
        {
          "internalType": "uint256",
          "name": "_amount",
          "type": "uint256"
        },
        {
          "internalType": "uint32",
          "name": "_minGasLimit",
          "type": "uint32"
        },
        {
          "internalType": "bytes",
          "name": "_extraData",
          "type": "bytes"
        }
      ],
      "name": "withdraw",
      "outputs": [],
      "stateMutability": "payable",
      "type": "function"
    }
  ],
  "transactionHash": "0x05755bab54c563b170d22b1ac01d1e4354f07bffa58871c81ae9ea0689e7a8a3",
  "args": [],
  "numDeployments": 1,
  "solcInputHash": "7a779a27b8ed2c7ee254759c1b8fff3c",
  "bytecode": "0x608060405234801561001057600080fd5b50610d4d806100206000396000f3fe6080604052600436106100705760003560e01c806356c3b5871161004e57806356c3b587146100e6578063662a633a14610106578063a1b4bc0414610126578063c89701a21461014657600080fd5b806305db940f1461007557806332b7006d146100b15780633cb747bf146100c6575b600080fd5b34801561008157600080fd5b50600454610095906001600160a01b031681565b6040516001600160a01b03909116815260200160405180910390f35b6100c46100bf366004610aa1565b610166565b005b3480156100d257600080fd5b50600054610095906001600160a01b031681565b3480156100f257600080fd5b50600254610095906001600160a01b031681565b34801561011257600080fd5b506100c4610121366004610b1d565b6101f6565b34801561013257600080fd5b50600354610095906001600160a01b031681565b34801561015257600080fd5b50600154610095906001600160a01b031681565b333b156101e05760405162461bcd60e51b815260206004820152603760248201527f5374616e646172644272696467653a2066756e6374696f6e2063616e206f6e6c60448201527f792062652063616c6c65642066726f6d20616e20454f4100000000000000000060648201526084015b60405180910390fd5b6101ef85333387878787610564565b5050505050565b6000546001600160a01b03163314801561028b575060015460005460408051636e296e4560e01b815290516001600160a01b039384169390921691636e296e45916004808201926020929091908290030181865afa15801561025c573d6000803e3d6000fd5b505050506040513d601f19601f820116820180604052508101906102809190610bb5565b6001600160a01b0316145b6103075760405162461bcd60e51b815260206004820152604160248201527f5374616e646172644272696467653a2066756e6374696f6e2063616e206f6e6c60448201527f792062652063616c6c65642066726f6d20746865206f746865722062726964676064820152606560f81b608482015260a4016101d7565b60025487906001600160a01b038083169116146103665760405162461bcd60e51b815260206004820152600b60248201527f6e6f74204c31207573646300000000000000000000000000000000000000000060448201526064016101d7565b60035487906001600160a01b038083169116146103b35760405162461bcd60e51b815260206004820152600b60248201526a6e6f74204c32207573646360a81b60448201526064016101d7565b604051638a6db9c360e01b81523060048201526000906001600160a01b038a1690638a6db9c390602401602060405180830381865afa1580156103fa573d6000803e3d6000fd5b505050506040513d601f19601f8201168201806040525081019061041e9190610bd2565b90508581101561049b576004805460405163cbf2b8bf60e01b8152600019928101929092526001600160a01b03169063cbf2b8bf906024016020604051808303816000875af1158015610475573d6000803e3d6000fd5b505050506040513d601f19601f820116820180604052508101906104999190610beb565b505b6040516340c10f1960e01b81526001600160a01b038881166004830152602482018890528a16906340c10f1990604401600060405180830381600087803b1580156104e557600080fd5b505af11580156104f9573d6000803e3d6000fd5b50505050876001600160a01b0316896001600160a01b03168b6001600160a01b03167fb0444523268717a02698be47d0803aa7468c00acbed2f8bd93a0459cde61dd898a8a8a8a6040516105509493929190610c36565b60405180910390a450505050505050505050565b60035487906001600160a01b038083169116146105b15760405162461bcd60e51b815260206004820152600b60248201526a6e6f74204c32207573646360a81b60448201526064016101d7565b604051638a6db9c360e01b81523060048201526000906001600160a01b038a1690638a6db9c390602401602060405180830381865afa1580156105f8573d6000803e3d6000fd5b505050506040513d601f19601f8201168201806040525081019061061c9190610bd2565b905085811015610699576004805460405163cbf2b8bf60e01b8152600019928101929092526001600160a01b03169063cbf2b8bf906024016020604051808303816000875af1158015610673573d6000803e3d6000fd5b505050506040513d601f19601f820116820180604052508101906106979190610beb565b505b6106ae6001600160a01b038a16893089610841565b604051630852cd8d60e31b8152600481018790526001600160a01b038a16906342966c6890602401600060405180830381600087803b1580156106f057600080fd5b505af1158015610704573d6000803e3d6000fd5b50506000546001546002546040516001600160a01b039384169550633dbb202b94509183169263a9f9e67560e01b9261074f92909116908f908f908f908f908e908e90602401610c5f565b60408051601f198184030181529181526020820180516001600160e01b03167fffffffff000000000000000000000000000000000000000000000000000000009485161790525160e085901b90921682526107af92918a90600401610cd3565b600060405180830381600087803b1580156107c957600080fd5b505af11580156107dd573d6000803e3d6000fd5b50506002546040516001600160a01b038c811694508d81169350909116907f73d170910aba9e6d50b102db522b1dbcd796216f5128b445aa2135272886497e9061082e908c908c908b908b90610c36565b60405180910390a4505050505050505050565b604080516001600160a01b0385811660248301528416604482015260648082018490528251808303909101815260849091019091526020810180516001600160e01b03166323b872dd60e01b17905261089b9085906108a1565b50505050565b60006108b66001600160a01b03841683610909565b905080516000141580156108db5750808060200190518101906108d99190610beb565b155b1561090457604051635274afe760e01b81526001600160a01b03841660048201526024016101d7565b505050565b60606109178383600061091e565b9392505050565b6060814710156109435760405163cd78605960e01b81523060048201526024016101d7565b600080856001600160a01b0316848660405161095f9190610d24565b60006040518083038185875af1925050503d806000811461099c576040519150601f19603f3d011682016040523d82523d6000602084013e6109a1565b606091505b50915091506109b18683836109bb565b9695505050505050565b6060826109d0576109cb82610a17565b610917565b81511580156109e757506001600160a01b0384163b155b15610a1057604051639996b31560e01b81526001600160a01b03851660048201526024016101d7565b5080610917565b805115610a275780518082602001fd5b604051630a12f52160e11b815260040160405180910390fd5b50565b6001600160a01b0381168114610a4057600080fd5b60008083601f840112610a6a57600080fd5b50813567ffffffffffffffff811115610a8257600080fd5b602083019150836020828501011115610a9a57600080fd5b9250929050565b600080600080600060808688031215610ab957600080fd5b8535610ac481610a43565b945060208601359350604086013563ffffffff81168114610ae457600080fd5b9250606086013567ffffffffffffffff811115610b0057600080fd5b610b0c88828901610a58565b969995985093965092949392505050565b600080600080600080600060c0888a031215610b3857600080fd5b8735610b4381610a43565b96506020880135610b5381610a43565b95506040880135610b6381610a43565b94506060880135610b7381610a43565b93506080880135925060a088013567ffffffffffffffff811115610b9657600080fd5b610ba28a828b01610a58565b989b979a50959850939692959293505050565b600060208284031215610bc757600080fd5b815161091781610a43565b600060208284031215610be457600080fd5b5051919050565b600060208284031215610bfd57600080fd5b8151801515811461091757600080fd5b81835281816020850137506000828201602090810191909152601f909101601f19169091010190565b6001600160a01b03851681528360208201526060604082015260006109b1606083018486610c0d565b60006001600160a01b03808a1683528089166020840152808816604084015280871660608401525084608083015260c060a0830152610ca260c083018486610c0d565b9998505050505050505050565b60005b83811015610cca578181015183820152602001610cb2565b50506000910152565b6001600160a01b03841681526060602082015260008351806060840152610d01816080850160208801610caf565b63ffffffff93909316604083015250601f91909101601f19160160800192915050565b60008251610d36818460208701610caf565b919091019291505056fea164736f6c6343000814000a",
  "devdoc": {
    "errors": {
      "AddressEmptyCode(address)": [
        {
          "details": "There's no code at `target` (it is not a contract)."
        }
      ],
      "AddressInsufficientBalance(address)": [
        {
          "details": "The ETH balance of the account is not enough to perform the operation."
        }
      ],
      "FailedInnerCall()": [
        {
          "details": "A call to an address target failed. The target may have reverted."
        }
      ],
      "SafeERC20FailedOperation(address)": [
        {
          "details": "An operation with an ERC20 token failed."
        }
      ]
    },
    "events": {
      "DepositFinalized(address,address,address,address,uint256,bytes)": {
        "custom:legacy": "@notice Emitted whenever an ERC20 deposit is finalized.",
        "params": {
          "amount": "Amount of the ERC20 deposited.",
          "extraData": "Extra data attached to the deposit.",
          "from": "Address of the depositor.",
          "l1Token": "Address of the token on L1.",
          "l2Token": "Address of the corresponding token on L2.",
          "to": "Address of the recipient on L2."
        }
      },
      "WithdrawalInitiated(address,address,address,address,uint256,bytes)": {
        "custom:legacy": "@notice Emitted whenever a withdrawal from L2 to L1 is initiated.",
        "params": {
          "amount": "Amount of the ERC20 withdrawn.",
          "extraData": "Extra data attached to the withdrawal.",
          "from": "Address of the withdrawer.",
          "l1Token": "Address of the token on L1.",
          "l2Token": "Address of the corresponding token on L2.",
          "to": "Address of the recipient on L1."
        }
      }
    },
    "kind": "dev",
    "methods": {
      "finalizeDeposit(address,address,address,address,uint256,bytes)": {
        "custom:legacy": "@notice Finalizes a deposit from L1 to L2.",
        "params": {
          "_amount": "Amount of the tokens being deposited.",
          "_extraData": "Extra data attached to the deposit.",
          "_from": "Address of the depositor.",
          "_l1Token": "Address of the L1 token to deposit.",
          "_l2Token": "Address of the corresponding L2 token.",
          "_to": "Address of the recipient."
        }
      },
      "withdraw(address,uint256,uint32,bytes)": {
        "custom:legacy": "@notice Initiates a withdrawal from L2 to L1.",
        "params": {
          "_amount": "Amount of the L2 token to withdraw.",
          "_extraData": "Extra data attached to the withdrawal.",
          "_l2Token": "Address of the L2 token to withdraw.",
          "_minGasLimit": "Minimum gas limit to use for the transaction."
        }
      }
    },
    "version": 1
  },
  "userdoc": {
    "kind": "user",
    "methods": {},
    "version": 1
  },
  "storageLayout": {
    "storage": [
      {
        "astId": 3007,
        "contract": "contracts/L2/L2UsdcBridge.sol:L2UsdcBridge",
        "label": "messenger",
        "offset": 0,
        "slot": "0",
        "type": "t_address"
      },
      {
        "astId": 3009,
        "contract": "contracts/L2/L2UsdcBridge.sol:L2UsdcBridge",
        "label": "otherBridge",
        "offset": 0,
        "slot": "1",
        "type": "t_address"
      },
      {
        "astId": 3011,
        "contract": "contracts/L2/L2UsdcBridge.sol:L2UsdcBridge",
        "label": "l1Usdc",
        "offset": 0,
        "slot": "2",
        "type": "t_address"
      },
      {
        "astId": 3013,
        "contract": "contracts/L2/L2UsdcBridge.sol:L2UsdcBridge",
        "label": "l2Usdc",
        "offset": 0,
        "slot": "3",
        "type": "t_address"
      },
      {
        "astId": 2209,
        "contract": "contracts/L2/L2UsdcBridge.sol:L2UsdcBridge",
        "label": "l2UsdcMasterMinter",
        "offset": 0,
        "slot": "4",
        "type": "t_address"
      }
    ],
    "types": {
      "t_address": {
        "encoding": "inplace",
        "label": "address",
        "numberOfBytes": "20"
      }
    }
  }
}