{
  "address": "0x9A6c60b9d8C2E1B3E3Dc7C745C59DC087F630b76",
  "abi": [
    {
      "anonymous": false,
      "inputs": [
        {
          "indexed": true,
          "internalType": "address",
          "name": "l1Token",
          "type": "address"
        },
        {
          "indexed": true,
          "internalType": "address",
          "name": "l2Token",
          "type": "address"
        },
        {
          "indexed": true,
          "internalType": "address",
          "name": "from",
          "type": "address"
        },
        {
          "indexed": false,
          "internalType": "address",
          "name": "to",
          "type": "address"
        },
        {
          "indexed": false,
          "internalType": "uint256",
          "name": "amount",
          "type": "uint256"
        },
        {
          "indexed": false,
          "internalType": "bytes",
          "name": "extraData",
          "type": "bytes"
        }
      ],
      "name": "DepositFinalized",
      "type": "event"
    },
    {
      "anonymous": false,
      "inputs": [
        {
          "indexed": true,
          "internalType": "address",
          "name": "l1Token",
          "type": "address"
        },
        {
          "indexed": true,
          "internalType": "address",
          "name": "l2Token",
          "type": "address"
        },
        {
          "indexed": true,
          "internalType": "address",
          "name": "from",
          "type": "address"
        },
        {
          "indexed": false,
          "internalType": "address",
          "name": "to",
          "type": "address"
        },
        {
          "indexed": false,
          "internalType": "uint256",
          "name": "amount",
          "type": "uint256"
        },
        {
          "indexed": false,
          "internalType": "bytes",
          "name": "extraData",
          "type": "bytes"
        }
      ],
      "name": "WithdrawalInitiated",
      "type": "event"
    },
    {
      "inputs": [
        {
          "internalType": "address",
          "name": "_l1Token",
          "type": "address"
        },
        {
          "internalType": "address",
          "name": "_l2Token",
          "type": "address"
        },
        {
          "internalType": "address",
          "name": "_from",
          "type": "address"
        },
        {
          "internalType": "address",
          "name": "_to",
          "type": "address"
        },
        {
          "internalType": "uint256",
          "name": "_amount",
          "type": "uint256"
        },
        {
          "internalType": "bytes",
          "name": "_extraData",
          "type": "bytes"
        }
      ],
      "name": "finalizeDeposit",
      "outputs": [],
      "stateMutability": "nonpayable",
      "type": "function"
    },
    {
      "inputs": [],
      "name": "l1Usdc",
      "outputs": [
        {
          "internalType": "address",
          "name": "",
          "type": "address"
        }
      ],
      "stateMutability": "view",
      "type": "function"
    },
    {
      "inputs": [],
      "name": "l2Usdc",
      "outputs": [
        {
          "internalType": "address",
          "name": "",
          "type": "address"
        }
      ],
      "stateMutability": "view",
      "type": "function"
    },
    {
      "inputs": [],
      "name": "messenger",
      "outputs": [
        {
          "internalType": "address",
          "name": "",
          "type": "address"
        }
      ],
      "stateMutability": "view",
      "type": "function"
    },
    {
      "inputs": [],
      "name": "otherBridge",
      "outputs": [
        {
          "internalType": "address",
          "name": "",
          "type": "address"
        }
      ],
      "stateMutability": "view",
      "type": "function"
    },
    {
      "inputs": [
        {
          "internalType": "address",
          "name": "_l2Token",
          "type": "address"
        },
        {
          "internalType": "uint256",
          "name": "_amount",
          "type": "uint256"
        },
        {
          "internalType": "uint32",
          "name": "_minGasLimit",
          "type": "uint32"
        },
        {
          "internalType": "bytes",
          "name": "_extraData",
          "type": "bytes"
        }
      ],
      "name": "withdraw",
      "outputs": [],
      "stateMutability": "payable",
      "type": "function"
    }
  ],
  "transactionHash": "0x5b2fb9cf51508bccdedeb3bf18e758092c5a9787df9d0a04bca3b35320ba8632",
  "args": [],
  "numDeployments": 1,
  "solcInputHash": "3d0d7adddaf4f4fd823d1e193fc2b0bf",
  "bytecode": "0x608060405234801561001057600080fd5b5061090a806100206000396000f3fe6080604052600436106100655760003560e01c8063662a633a11610043578063662a633a146100db578063a1b4bc04146100fb578063c89701a21461011b57600080fd5b806332b7006d1461006a5780633cb747bf1461007f57806356c3b587146100bb575b600080fd5b61007d6100783660046106ad565b61013b565b005b34801561008b57600080fd5b5060005461009f906001600160a01b031681565b6040516001600160a01b03909116815260200160405180910390f35b3480156100c757600080fd5b5060025461009f906001600160a01b031681565b3480156100e757600080fd5b5061007d6100f6366004610729565b6101cb565b34801561010757600080fd5b5060035461009f906001600160a01b031681565b34801561012757600080fd5b5060015461009f906001600160a01b031681565b333b156101b55760405162461bcd60e51b815260206004820152603760248201527f5374616e646172644272696467653a2066756e6374696f6e2063616e206f6e6c60448201527f792062652063616c6c65642066726f6d20616e20454f4100000000000000000060648201526084015b60405180910390fd5b6101c485333387878787610450565b5050505050565b6000546001600160a01b031633148015610260575060015460005460408051636e296e4560e01b815290516001600160a01b039384169390921691636e296e45916004808201926020929091908290030181865afa158015610231573d6000803e3d6000fd5b505050506040513d601f19601f8201168201806040525081019061025591906107c1565b6001600160a01b0316145b6102dc5760405162461bcd60e51b815260206004820152604160248201527f5374616e646172644272696467653a2066756e6374696f6e2063616e206f6e6c60448201527f792062652063616c6c65642066726f6d20746865206f746865722062726964676064820152606560f81b608482015260a4016101ac565b60025487906001600160a01b0380831691161461033b5760405162461bcd60e51b815260206004820152600b60248201527f6e6f74204c31207573646300000000000000000000000000000000000000000060448201526064016101ac565b60035487906001600160a01b038083169116146103885760405162461bcd60e51b815260206004820152600b60248201526a6e6f74204c32207573646360a81b60448201526064016101ac565b6040516340c10f1960e01b81526001600160a01b038781166004830152602482018790528916906340c10f1990604401600060405180830381600087803b1580156103d257600080fd5b505af11580156103e6573d6000803e3d6000fd5b50505050866001600160a01b0316886001600160a01b03168a6001600160a01b03167fb0444523268717a02698be47d0803aa7468c00acbed2f8bd93a0459cde61dd898989898960405161043d949392919061080e565b60405180910390a4505050505050505050565b60035487906001600160a01b0380831691161461049d5760405162461bcd60e51b815260206004820152600b60248201526a6e6f74204c32207573646360a81b60448201526064016101ac565b604051632770a7eb60e21b81526001600160a01b03888116600483015260248201879052891690639dc29fac90604401600060405180830381600087803b1580156104e757600080fd5b505af11580156104fb573d6000803e3d6000fd5b50506000546001546002546040516001600160a01b039384169550633dbb202b94509183169263a9f9e67560e01b9261054692909116908e908e908e908e908d908d90602401610841565b60408051601f198184030181529181526020820180517bffffffffffffffffffffffffffffffffffffffffffffffffffffffff167fffffffff000000000000000000000000000000000000000000000000000000009485161790525160e085901b90921682526105bb92918990600401610891565b600060405180830381600087803b1580156105d557600080fd5b505af11580156105e9573d6000803e3d6000fd5b50506002546040516001600160a01b038b811694508c81169350909116907f73d170910aba9e6d50b102db522b1dbcd796216f5128b445aa2135272886497e9061063a908b908b908a908a9061080e565b60405180910390a45050505050505050565b6001600160a01b038116811461066157600080fd5b50565b60008083601f84011261067657600080fd5b50813567ffffffffffffffff81111561068e57600080fd5b6020830191508360208285010111156106a657600080fd5b9250929050565b6000806000806000608086880312156106c557600080fd5b85356106d08161064c565b945060208601359350604086013563ffffffff811681146106f057600080fd5b9250606086013567ffffffffffffffff81111561070c57600080fd5b61071888828901610664565b969995985093965092949392505050565b600080600080600080600060c0888a03121561074457600080fd5b873561074f8161064c565b9650602088013561075f8161064c565b9550604088013561076f8161064c565b9450606088013561077f8161064c565b93506080880135925060a088013567ffffffffffffffff8111156107a257600080fd5b6107ae8a828b01610664565b989b979a50959850939692959293505050565b6000602082840312156107d357600080fd5b81516107de8161064c565b9392505050565b81835281816020850137506000828201602090810191909152601f909101601f19169091010190565b6001600160a01b03851681528360208201526060604082015260006108376060830184866107e5565b9695505050505050565b60006001600160a01b03808a1683528089166020840152808816604084015280871660608401525084608083015260c060a083015261088460c0830184866107e5565b9998505050505050505050565b6001600160a01b038416815260006020606081840152845180606085015260005b818110156108ce578681018301518582016080015282016108b2565b506000608082860101526080601f19601f8301168501019250505063ffffffff8316604083015294935050505056fea164736f6c6343000814000a",
  "devdoc": {
    "events": {
      "DepositFinalized(address,address,address,address,uint256,bytes)": {
        "custom:legacy": "@notice Emitted whenever an ERC20 deposit is finalized.",
        "params": {
          "amount": "Amount of the ERC20 deposited.",
          "extraData": "Extra data attached to the deposit.",
          "from": "Address of the depositor.",
          "l1Token": "Address of the token on L1.",
          "l2Token": "Address of the corresponding token on L2.",
          "to": "Address of the recipient on L2."
        }
      },
      "WithdrawalInitiated(address,address,address,address,uint256,bytes)": {
        "custom:legacy": "@notice Emitted whenever a withdrawal from L2 to L1 is initiated.",
        "params": {
          "amount": "Amount of the ERC20 withdrawn.",
          "extraData": "Extra data attached to the withdrawal.",
          "from": "Address of the withdrawer.",
          "l1Token": "Address of the token on L1.",
          "l2Token": "Address of the corresponding token on L2.",
          "to": "Address of the recipient on L1."
        }
      }
    },
    "kind": "dev",
    "methods": {
      "finalizeDeposit(address,address,address,address,uint256,bytes)": {
        "custom:legacy": "@notice Finalizes a deposit from L1 to L2.",
        "params": {
          "_amount": "Amount of the tokens being deposited.",
          "_extraData": "Extra data attached to the deposit.",
          "_from": "Address of the depositor.",
          "_l1Token": "Address of the L1 token to deposit.",
          "_l2Token": "Address of the corresponding L2 token.",
          "_to": "Address of the recipient."
        }
      },
      "withdraw(address,uint256,uint32,bytes)": {
        "custom:legacy": "@notice Initiates a withdrawal from L2 to L1.",
        "params": {
          "_amount": "Amount of the L2 token to withdraw.",
          "_extraData": "Extra data attached to the withdrawal.",
          "_l2Token": "Address of the L2 token to withdraw.",
          "_minGasLimit": "Minimum gas limit to use for the transaction."
        }
      }
    },
    "version": 1
  },
  "userdoc": {
    "kind": "user",
    "methods": {},
    "version": 1
  },
  "storageLayout": {
    "storage": [
      {
        "astId": 2785,
        "contract": "contracts/L2/L2UsdcBridge.sol:L2UsdcBridge",
        "label": "messenger",
        "offset": 0,
        "slot": "0",
        "type": "t_address"
      },
      {
        "astId": 2787,
        "contract": "contracts/L2/L2UsdcBridge.sol:L2UsdcBridge",
        "label": "otherBridge",
        "offset": 0,
        "slot": "1",
        "type": "t_address"
      },
      {
        "astId": 2789,
        "contract": "contracts/L2/L2UsdcBridge.sol:L2UsdcBridge",
        "label": "l1Usdc",
        "offset": 0,
        "slot": "2",
        "type": "t_address"
      },
      {
        "astId": 2791,
        "contract": "contracts/L2/L2UsdcBridge.sol:L2UsdcBridge",
        "label": "l2Usdc",
        "offset": 0,
        "slot": "3",
        "type": "t_address"
      }
    ],
    "types": {
      "t_address": {
        "encoding": "inplace",
        "label": "address",
        "numberOfBytes": "20"
      }
    }
  }
}