{
  "address": "0x4CCc8Be7AcFd28e2EB0b7DF5eBaAB21e0d0EF5FD",
  "abi": [
    {
      "inputs": [],
      "stateMutability": "nonpayable",
      "type": "constructor"
    },
    {
      "anonymous": false,
      "inputs": [
        {
          "indexed": true,
          "internalType": "address",
          "name": "target",
          "type": "address"
        },
        {
          "indexed": false,
          "internalType": "address",
          "name": "sender",
          "type": "address"
        },
        {
          "indexed": false,
          "internalType": "bytes",
          "name": "message",
          "type": "bytes"
        },
        {
          "indexed": false,
          "internalType": "uint256",
          "name": "messageNonce",
          "type": "uint256"
        }
      ],
      "name": "FailedRelayedMessage",
      "type": "event"
    },
    {
      "anonymous": false,
      "inputs": [
        {
          "indexed": true,
          "internalType": "address",
          "name": "target",
          "type": "address"
        },
        {
          "indexed": false,
          "internalType": "address",
          "name": "sender",
          "type": "address"
        },
        {
          "indexed": false,
          "internalType": "bytes",
          "name": "message",
          "type": "bytes"
        },
        {
          "indexed": false,
          "internalType": "uint256",
          "name": "messageNonce",
          "type": "uint256"
        }
      ],
      "name": "RelayedMessage",
      "type": "event"
    },
    {
      "anonymous": false,
      "inputs": [
        {
          "indexed": true,
          "internalType": "address",
          "name": "target",
          "type": "address"
        },
        {
          "indexed": false,
          "internalType": "address",
          "name": "sender",
          "type": "address"
        },
        {
          "indexed": false,
          "internalType": "bytes",
          "name": "message",
          "type": "bytes"
        },
        {
          "indexed": false,
          "internalType": "uint256",
          "name": "messageNonce",
          "type": "uint256"
        },
        {
          "indexed": false,
          "internalType": "uint256",
          "name": "gasLimit",
          "type": "uint256"
        }
      ],
      "name": "SentMessage",
      "type": "event"
    },
    {
      "inputs": [],
      "name": "l2messenger",
      "outputs": [
        {
          "internalType": "address",
          "name": "",
          "type": "address"
        }
      ],
      "stateMutability": "view",
      "type": "function"
    },
    {
      "inputs": [],
      "name": "messageNonce",
      "outputs": [
        {
          "internalType": "uint256",
          "name": "",
          "type": "uint256"
        }
      ],
      "stateMutability": "view",
      "type": "function"
    },
    {
      "inputs": [
        {
          "internalType": "address",
          "name": "_target",
          "type": "address"
        },
        {
          "internalType": "address",
          "name": "_sender",
          "type": "address"
        },
        {
          "internalType": "bytes",
          "name": "_message",
          "type": "bytes"
        },
        {
          "internalType": "uint256",
          "name": "_messageNonce",
          "type": "uint256"
        }
      ],
      "name": "relayMessage",
      "outputs": [],
      "stateMutability": "nonpayable",
      "type": "function"
    },
    {
      "inputs": [
        {
          "internalType": "address",
          "name": "_target",
          "type": "address"
        },
        {
          "internalType": "bytes",
          "name": "_message",
          "type": "bytes"
        },
        {
          "internalType": "uint32",
          "name": "_gasLimit",
          "type": "uint32"
        }
      ],
      "name": "sendMessage",
      "outputs": [],
      "stateMutability": "nonpayable",
      "type": "function"
    },
    {
      "inputs": [
        {
          "internalType": "address",
          "name": "_l2messagenger",
          "type": "address"
        }
      ],
      "name": "setL2messenger",
      "outputs": [],
      "stateMutability": "nonpayable",
      "type": "function"
    },
    {
      "inputs": [
        {
          "internalType": "bytes32",
          "name": "_hashMessages",
          "type": "bytes32"
        },
        {
          "internalType": "bool",
          "name": "_bool",
          "type": "bool"
        }
      ],
      "name": "setSuccessfulMessages",
      "outputs": [],
      "stateMutability": "nonpayable",
      "type": "function"
    },
    {
      "inputs": [
        {
          "internalType": "bytes32",
          "name": "",
          "type": "bytes32"
        }
      ],
      "name": "successfulMessages",
      "outputs": [
        {
          "internalType": "bool",
          "name": "",
          "type": "bool"
        }
      ],
      "stateMutability": "view",
      "type": "function"
    },
    {
      "inputs": [],
      "name": "xDomainMessageSender",
      "outputs": [
        {
          "internalType": "address",
          "name": "",
          "type": "address"
        }
      ],
      "stateMutability": "view",
      "type": "function"
    }
  ],
  "transactionHash": "0x26319fb2a233f758d8962262cee540c50b48f78124b3105caea5e3eb96da4dc3",
  "args": [],
  "numDeployments": 1,
  "solcInputHash": "7a779a27b8ed2c7ee254759c1b8fff3c",
  "bytecode": "0x608060405234801561001057600080fd5b50610828806100206000396000f3fe608060405234801561001057600080fd5b50600436106100885760003560e01c806370f8169d1161005b57806370f8169d14610108578063b1b1b2091461011b578063cbd4ece91461014e578063ecc704281461016157600080fd5b80632753f6a41461008d578063292200a9146100a25780633dbb202b146100d05780636e296e45146100e3575b600080fd5b6100a061009b3660046104f6565b610178565b005b6100a06100b0366004610518565b600091825260208290526040909120805460ff1916911515919091179055565b6100a06100de3660046105f0565b6101f8565b6100eb6102c1565b6040516001600160a01b0390911681526020015b60405180910390f35b6003546100eb906001600160a01b031681565b61013e61012936600461065b565b60006020819052908152604090205460ff1681565b60405190151581526020016100ff565b6100a061015c366004610674565b61032c565b61016a60015481565b6040519081526020016100ff565b6003546001600160a01b0316156101d65760405162461bcd60e51b815260206004820152600b60248201527f616c72656164792073657400000000000000000000000000000000000000000060448201526064015b60405180910390fd5b600380546001600160a01b0319166001600160a01b0392909216919091179055565b826001600160a01b03167fcb0f7ffd78f9aee47a248fae8db181db6eee833039123e026dcbff529522e52a3384600160008154610234906106da565b918290555060405161024a939291908790610751565b60405180910390a260035460015460405163cbd4ece960e01b81526001600160a01b039092169163cbd4ece99161028a9187913391889190600401610790565b600060405180830381600087803b1580156102a457600080fd5b505af11580156102b8573d6000803e3d6000fd5b50505050505050565b6002546000906001600160a01b031661031c5760405162461bcd60e51b815260206004820152601f60248201527f78446f6d61696e4d65737361676553656e646572206973206e6f74207365740060448201526064016101cd565b506002546001600160a01b031690565b600280546001600160a01b0319166001600160a01b03858116919091179091556040516000918616906103609085906107cd565b6000604051808303816000865af19150503d806000811461039d576040519150601f19603f3d011682016040523d82523d6000602084013e6103a2565b606091505b505090506103af8161045c565b600280546001600160a01b0319169055801561040f57846001600160a01b03167ff77d5e215680ad3bd959cfe50b061882f87372d624f0b8a3902f9e28e26a0f44858585604051610402939291906107e9565b60405180910390a2610455565b846001600160a01b03167fbb1b04e7ba678c8e5e1ec56b66250631575c321f7c2a13e4e5b3abb7f375af1b85858560405161044c939291906107e9565b60405180910390a25b5050505050565b60405181151560248201526104b29060440160408051601f198184030181529190526020810180517bffffffffffffffffffffffffffffffffffffffffffffffffffffffff166332458eed60e01b1790526104b5565b50565b6104b28160006a636f6e736f6c652e6c6f679050600080835160208501845afa505050565b80356001600160a01b03811681146104f157600080fd5b919050565b60006020828403121561050857600080fd5b610511826104da565b9392505050565b6000806040838503121561052b57600080fd5b823591506020830135801515811461054257600080fd5b809150509250929050565b634e487b7160e01b600052604160045260246000fd5b600082601f83011261057457600080fd5b813567ffffffffffffffff8082111561058f5761058f61054d565b604051601f8301601f19908116603f011681019082821181831017156105b7576105b761054d565b816040528381528660208588010111156105d057600080fd5b836020870160208301376000602085830101528094505050505092915050565b60008060006060848603121561060557600080fd5b61060e846104da565b9250602084013567ffffffffffffffff81111561062a57600080fd5b61063686828701610563565b925050604084013563ffffffff8116811461065057600080fd5b809150509250925092565b60006020828403121561066d57600080fd5b5035919050565b6000806000806080858703121561068a57600080fd5b610693856104da565b93506106a1602086016104da565b9250604085013567ffffffffffffffff8111156106bd57600080fd5b6106c987828801610563565b949793965093946060013593505050565b6000600182016106fa57634e487b7160e01b600052601160045260246000fd5b5060010190565b60005b8381101561071c578181015183820152602001610704565b50506000910152565b6000815180845261073d816020860160208601610701565b601f01601f19169290920160200192915050565b6001600160a01b03851681526080602082015260006107736080830186610725565b905083604083015263ffffffff8316606083015295945050505050565b60006001600160a01b038087168352808616602084015250608060408301526107bc6080830185610725565b905082606083015295945050505050565b600082516107df818460208701610701565b9190910192915050565b6001600160a01b038416815260606020820152600061080b6060830185610725565b905082604083015294935050505056fea164736f6c6343000814000a",
  "devdoc": {
    "kind": "dev",
    "methods": {},
    "version": 1
  },
  "userdoc": {
    "kind": "user",
    "methods": {},
    "version": 1
  },
  "storageLayout": {
    "storage": [
      {
        "astId": 2642,
        "contract": "contracts/test/MockL1Messenger.sol:MockL1Messenger",
        "label": "successfulMessages",
        "offset": 0,
        "slot": "0",
        "type": "t_mapping(t_bytes32,t_bool)"
      },
      {
        "astId": 2644,
        "contract": "contracts/test/MockL1Messenger.sol:MockL1Messenger",
        "label": "messageNonce",
        "offset": 0,
        "slot": "1",
        "type": "t_uint256"
      },
      {
        "astId": 2646,
        "contract": "contracts/test/MockL1Messenger.sol:MockL1Messenger",
        "label": "xDomainMsgSender",
        "offset": 0,
        "slot": "2",
        "type": "t_address"
      },
      {
        "astId": 2648,
        "contract": "contracts/test/MockL1Messenger.sol:MockL1Messenger",
        "label": "l2messenger",
        "offset": 0,
        "slot": "3",
        "type": "t_address"
      }
    ],
    "types": {
      "t_address": {
        "encoding": "inplace",
        "label": "address",
        "numberOfBytes": "20"
      },
      "t_bool": {
        "encoding": "inplace",
        "label": "bool",
        "numberOfBytes": "1"
      },
      "t_bytes32": {
        "encoding": "inplace",
        "label": "bytes32",
        "numberOfBytes": "32"
      },
      "t_mapping(t_bytes32,t_bool)": {
        "encoding": "mapping",
        "key": "t_bytes32",
        "label": "mapping(bytes32 => bool)",
        "numberOfBytes": "32",
        "value": "t_bool"
      },
      "t_uint256": {
        "encoding": "inplace",
        "label": "uint256",
        "numberOfBytes": "32"
      }
    }
  }
}