{
  "address": "0x5FC8d32690cc91D4c39d9d3abcBD16989F875707",
  "abi": [
    {
      "inputs": [],
      "stateMutability": "nonpayable",
      "type": "constructor"
    },
    {
      "anonymous": false,
      "inputs": [
        {
          "indexed": true,
          "internalType": "address",
          "name": "target",
          "type": "address"
        },
        {
          "indexed": false,
          "internalType": "address",
          "name": "sender",
          "type": "address"
        },
        {
          "indexed": false,
          "internalType": "bytes",
          "name": "message",
          "type": "bytes"
        },
        {
          "indexed": false,
          "internalType": "uint256",
          "name": "messageNonce",
          "type": "uint256"
        }
      ],
      "name": "FailedRelayedMessage",
      "type": "event"
    },
    {
      "anonymous": false,
      "inputs": [
        {
          "indexed": true,
          "internalType": "address",
          "name": "target",
          "type": "address"
        },
        {
          "indexed": false,
          "internalType": "address",
          "name": "sender",
          "type": "address"
        },
        {
          "indexed": false,
          "internalType": "bytes",
          "name": "message",
          "type": "bytes"
        },
        {
          "indexed": false,
          "internalType": "uint256",
          "name": "messageNonce",
          "type": "uint256"
        }
      ],
      "name": "RelayedMessage",
      "type": "event"
    },
    {
      "anonymous": false,
      "inputs": [
        {
          "indexed": true,
          "internalType": "address",
          "name": "target",
          "type": "address"
        },
        {
          "indexed": false,
          "internalType": "address",
          "name": "sender",
          "type": "address"
        },
        {
          "indexed": false,
          "internalType": "bytes",
          "name": "message",
          "type": "bytes"
        },
        {
          "indexed": false,
          "internalType": "uint256",
          "name": "messageNonce",
          "type": "uint256"
        },
        {
          "indexed": false,
          "internalType": "uint256",
          "name": "gasLimit",
          "type": "uint256"
        }
      ],
      "name": "SentMessage",
      "type": "event"
    },
    {
      "inputs": [],
      "name": "l1CrossDomainMessenger",
      "outputs": [
        {
          "internalType": "address",
          "name": "",
          "type": "address"
        }
      ],
      "stateMutability": "view",
      "type": "function"
    },
    {
      "inputs": [],
      "name": "messageNonce",
      "outputs": [
        {
          "internalType": "uint256",
          "name": "",
          "type": "uint256"
        }
      ],
      "stateMutability": "view",
      "type": "function"
    },
    {
      "inputs": [
        {
          "internalType": "address",
          "name": "_target",
          "type": "address"
        },
        {
          "internalType": "address",
          "name": "_sender",
          "type": "address"
        },
        {
          "internalType": "bytes",
          "name": "_message",
          "type": "bytes"
        },
        {
          "internalType": "uint256",
          "name": "_messageNonce",
          "type": "uint256"
        }
      ],
      "name": "relayMessage",
      "outputs": [],
      "stateMutability": "nonpayable",
      "type": "function"
    },
    {
      "inputs": [
        {
          "internalType": "address",
          "name": "_target",
          "type": "address"
        },
        {
          "internalType": "bytes",
          "name": "_message",
          "type": "bytes"
        },
        {
          "internalType": "uint32",
          "name": "_gasLimit",
          "type": "uint32"
        }
      ],
      "name": "sendMessage",
      "outputs": [],
      "stateMutability": "nonpayable",
      "type": "function"
    },
    {
      "inputs": [
        {
          "internalType": "address",
          "name": "_l1messagenger",
          "type": "address"
        }
      ],
      "name": "setL1messenger",
      "outputs": [],
      "stateMutability": "nonpayable",
      "type": "function"
    },
    {
      "inputs": [],
      "name": "xDomainMessageSender",
      "outputs": [
        {
          "internalType": "address",
          "name": "",
          "type": "address"
        }
      ],
      "stateMutability": "view",
      "type": "function"
    }
  ],
  "transactionHash": "0x203312fcd30c789a8553af6ff2c688a2458fb9d95fb9a1b7fc07563a8e885ad6",
  "args": [],
  "numDeployments": 1,
  "solcInputHash": "7a779a27b8ed2c7ee254759c1b8fff3c",
  "bytecode": "0x608060405234801561001057600080fd5b50610762806100206000396000f3fe608060405234801561001057600080fd5b50600436106100725760003560e01c8063a711986911610050578063a7119869146100c4578063cbd4ece9146100d7578063ecc70428146100ea57600080fd5b80633dbb202b14610077578063564cbe221461008c5780636e296e451461009f575b600080fd5b61008a610085366004610521565b610101565b005b61008a61009a36600461058c565b6101c9565b6100a7610249565b6040516001600160a01b0390911681526020015b60405180910390f35b6002546100a7906001600160a01b031681565b61008a6100e53660046105ae565b6102b4565b6100f360005481565b6040519081526020016100bb565b826001600160a01b03167fcb0f7ffd78f9aee47a248fae8db181db6eee833039123e026dcbff529522e52a3384600080815461013c90610614565b918290555060405161015293929190879061068b565b60405180910390a260025460005460405163cbd4ece960e01b81526001600160a01b039092169163cbd4ece99161019291879133918891906004016106ca565b600060405180830381600087803b1580156101ac57600080fd5b505af11580156101c0573d6000803e3d6000fd5b50505050505050565b6002546001600160a01b0316156102275760405162461bcd60e51b815260206004820152600b60248201527f616c72656164792073657400000000000000000000000000000000000000000060448201526064015b60405180910390fd5b600280546001600160a01b0319166001600160a01b0392909216919091179055565b6001546000906001600160a01b03166102a45760405162461bcd60e51b815260206004820152601f60248201527f78446f6d61696e4d65737361676553656e646572206973206e6f742073657400604482015260640161021e565b506001546001600160a01b031690565b600180546001600160a01b0319166001600160a01b03858116919091179091556040516000918616906102e8908590610707565b6000604051808303816000865af19150503d8060008114610325576040519150601f19603f3d011682016040523d82523d6000602084013e61032a565b606091505b50509050610337816103e4565b600180546001600160a01b0319169055801561039757846001600160a01b03167ff77d5e215680ad3bd959cfe50b061882f87372d624f0b8a3902f9e28e26a0f4485858560405161038a93929190610723565b60405180910390a26103dd565b846001600160a01b03167fbb1b04e7ba678c8e5e1ec56b66250631575c321f7c2a13e4e5b3abb7f375af1b8585856040516103d493929190610723565b60405180910390a25b5050505050565b604051811515602482015261043a9060440160408051601f198184030181529190526020810180517bffffffffffffffffffffffffffffffffffffffffffffffffffffffff166332458eed60e01b17905261043d565b50565b61043a8160006a636f6e736f6c652e6c6f679050600080835160208501845afa505050565b80356001600160a01b038116811461047957600080fd5b919050565b634e487b7160e01b600052604160045260246000fd5b600082601f8301126104a557600080fd5b813567ffffffffffffffff808211156104c0576104c061047e565b604051601f8301601f19908116603f011681019082821181831017156104e8576104e861047e565b8160405283815286602085880101111561050157600080fd5b836020870160208301376000602085830101528094505050505092915050565b60008060006060848603121561053657600080fd5b61053f84610462565b9250602084013567ffffffffffffffff81111561055b57600080fd5b61056786828701610494565b925050604084013563ffffffff8116811461058157600080fd5b809150509250925092565b60006020828403121561059e57600080fd5b6105a782610462565b9392505050565b600080600080608085870312156105c457600080fd5b6105cd85610462565b93506105db60208601610462565b9250604085013567ffffffffffffffff8111156105f757600080fd5b61060387828801610494565b949793965093946060013593505050565b60006001820161063457634e487b7160e01b600052601160045260246000fd5b5060010190565b60005b8381101561065657818101518382015260200161063e565b50506000910152565b6000815180845261067781602086016020860161063b565b601f01601f19169290920160200192915050565b6001600160a01b03851681526080602082015260006106ad608083018661065f565b905083604083015263ffffffff8316606083015295945050505050565b60006001600160a01b038087168352808616602084015250608060408301526106f6608083018561065f565b905082606083015295945050505050565b6000825161071981846020870161063b565b9190910192915050565b6001600160a01b0384168152606060208201526000610745606083018561065f565b905082604083015294935050505056fea164736f6c6343000814000a",
  "devdoc": {
    "kind": "dev",
    "methods": {},
    "version": 1
  },
  "userdoc": {
    "kind": "user",
    "methods": {},
    "version": 1
  },
  "storageLayout": {
    "storage": [
      {
        "astId": 2839,
        "contract": "contracts/test/MockL2Messenger.sol:MockL2Messenger",
        "label": "messageNonce",
        "offset": 0,
        "slot": "0",
        "type": "t_uint256"
      },
      {
        "astId": 2841,
        "contract": "contracts/test/MockL2Messenger.sol:MockL2Messenger",
        "label": "xDomainMsgSender",
        "offset": 0,
        "slot": "1",
        "type": "t_address"
      },
      {
        "astId": 2843,
        "contract": "contracts/test/MockL2Messenger.sol:MockL2Messenger",
        "label": "l1CrossDomainMessenger",
        "offset": 0,
        "slot": "2",
        "type": "t_address"
      }
    ],
    "types": {
      "t_address": {
        "encoding": "inplace",
        "label": "address",
        "numberOfBytes": "20"
      },
      "t_uint256": {
        "encoding": "inplace",
        "label": "uint256",
        "numberOfBytes": "32"
      }
    }
  }
}