{
  "address": "0x514424f573F84E40dC953490D0A305b33267d005",
  "abi": [
    {
      "inputs": [],
      "stateMutability": "nonpayable",
      "type": "constructor"
    },
    {
      "anonymous": false,
      "inputs": [
        {
          "indexed": true,
          "internalType": "address",
          "name": "target",
          "type": "address"
        },
        {
          "indexed": false,
          "internalType": "address",
          "name": "sender",
          "type": "address"
        },
        {
          "indexed": false,
          "internalType": "bytes",
          "name": "message",
          "type": "bytes"
        },
        {
          "indexed": false,
          "internalType": "uint256",
          "name": "messageNonce",
          "type": "uint256"
        }
      ],
      "name": "FailedRelayedMessage",
      "type": "event"
    },
    {
      "anonymous": false,
      "inputs": [
        {
          "indexed": true,
          "internalType": "address",
          "name": "target",
          "type": "address"
        },
        {
          "indexed": false,
          "internalType": "address",
          "name": "sender",
          "type": "address"
        },
        {
          "indexed": false,
          "internalType": "bytes",
          "name": "message",
          "type": "bytes"
        },
        {
          "indexed": false,
          "internalType": "uint256",
          "name": "messageNonce",
          "type": "uint256"
        }
      ],
      "name": "RelayedMessage",
      "type": "event"
    },
    {
      "inputs": [],
      "name": "l1CrossDomainMessenger",
      "outputs": [
        {
          "internalType": "address",
          "name": "",
          "type": "address"
        }
      ],
      "stateMutability": "view",
      "type": "function"
    },
    {
      "inputs": [],
      "name": "messageNonce",
      "outputs": [
        {
          "internalType": "uint256",
          "name": "",
          "type": "uint256"
        }
      ],
      "stateMutability": "view",
      "type": "function"
    },
    {
      "inputs": [
        {
          "internalType": "address",
          "name": "_target",
          "type": "address"
        },
        {
          "internalType": "address",
          "name": "_sender",
          "type": "address"
        },
        {
          "internalType": "bytes",
          "name": "_message",
          "type": "bytes"
        },
        {
          "internalType": "uint256",
          "name": "_messageNonce",
          "type": "uint256"
        }
      ],
      "name": "relayMessage",
      "outputs": [],
      "stateMutability": "nonpayable",
      "type": "function"
    },
    {
      "inputs": [
        {
          "internalType": "address",
          "name": "_l1messagenger",
          "type": "address"
        }
      ],
      "name": "setL1messenger",
      "outputs": [],
      "stateMutability": "nonpayable",
      "type": "function"
    },
    {
      "inputs": [],
      "name": "xDomainMessageSender",
      "outputs": [
        {
          "internalType": "address",
          "name": "",
          "type": "address"
        }
      ],
      "stateMutability": "view",
      "type": "function"
    }
  ],
  "transactionHash": "0x8331f2f8a5439008cc8f40938c5e0c5c972d1383e740701e51d246301ede815c",
  "args": [],
  "numDeployments": 1,
  "solcInputHash": "3d0d7adddaf4f4fd823d1e193fc2b0bf",
  "bytecode": "0x608060405234801561001057600080fd5b50610691806100206000396000f3fe608060405234801561001057600080fd5b50600436106100675760003560e01c8063a711986911610050578063a7119869146100a6578063cbd4ece9146100b9578063ecc70428146100cc57600080fd5b8063564cbe221461006c5780636e296e4514610081575b600080fd5b61007f61007a36600461044e565b6100e3565b005b610089610163565b6040516001600160a01b0390911681526020015b60405180910390f35b600254610089906001600160a01b031681565b61007f6100c7366004610486565b6101ce565b6100d560005481565b60405190815260200161009d565b6002546001600160a01b0316156101415760405162461bcd60e51b815260206004820152600b60248201527f616c72656164792073657400000000000000000000000000000000000000000060448201526064015b60405180910390fd5b600280546001600160a01b0319166001600160a01b0392909216919091179055565b6001546000906001600160a01b03166101be5760405162461bcd60e51b815260206004820152601f60248201527f78446f6d61696e4d65737361676553656e646572206973206e6f7420736574006044820152606401610138565b506001546001600160a01b031690565b6101f060405180606001604052806027815260200161065e6027913985610341565b600180546001600160a01b0319166001600160a01b0385811691909117909155604051600091861690610224908590610584565b6000604051808303816000865af19150503d8060008114610261576040519150601f19603f3d011682016040523d82523d6000602084013e610266565b606091505b505090506102738161038a565b600180546001600160a01b031916905580156102d357846001600160a01b03167ff77d5e215680ad3bd959cfe50b061882f87372d624f0b8a3902f9e28e26a0f448585856040516102c6939291906105cc565b60405180910390a2610319565b846001600160a01b03167fbb1b04e7ba678c8e5e1ec56b66250631575c321f7c2a13e4e5b3abb7f375af1b858585604051610310939291906105cc565b60405180910390a25b61033a60405180606001604052806021815260200161063d602191396103ce565b5050505050565b61038682826040516024016103579291906105fe565b60408051601f198184030181529190526020810180516001600160e01b031663319af33360e01b17905261040d565b5050565b60405181151560248201526103cb9060440160408051601f198184030181529190526020810180516001600160e01b03166332458eed60e01b17905261040d565b50565b6103cb816040516024016103e29190610629565b60408051601f198184030181529190526020810180516001600160e01b031663104c13eb60e21b1790525b6103cb8160006a636f6e736f6c652e6c6f679050600080835160208501845afa505050565b80356001600160a01b038116811461044957600080fd5b919050565b60006020828403121561046057600080fd5b61046982610432565b9392505050565b634e487b7160e01b600052604160045260246000fd5b6000806000806080858703121561049c57600080fd5b6104a585610432565b93506104b360208601610432565b9250604085013567ffffffffffffffff808211156104d057600080fd5b818701915087601f8301126104e457600080fd5b8135818111156104f6576104f6610470565b604051601f8201601f19908116603f0116810190838211818310171561051e5761051e610470565b816040528281528a602084870101111561053757600080fd5b826020860160208301376000928101602001929092525095989497509495606001359450505050565b60005b8381101561057b578181015183820152602001610563565b50506000910152565b60008251610596818460208701610560565b9190910192915050565b600081518084526105b8816020860160208601610560565b601f01601f19169290920160200192915050565b6001600160a01b03841681526060602082015260006105ee60608301856105a0565b9050826040830152949350505050565b60408152600061061160408301856105a0565b90506001600160a01b03831660208301529392505050565b60208152600061046960208301846105a056fe4d6f636b4c324d657373656e6765722072656c61794d65737361676520656e64204d6f636b4c324d657373656e6765722072656c61794d657373616765205f746172676574202573a164736f6c6343000814000a",
  "devdoc": {
    "kind": "dev",
    "methods": {},
    "version": 1
  },
  "userdoc": {
    "kind": "user",
    "methods": {},
    "version": 1
  },
  "storageLayout": {
    "storage": [
      {
        "astId": 2647,
        "contract": "contracts/test/MockL2Messenger.sol:MockL2Messenger",
        "label": "messageNonce",
        "offset": 0,
        "slot": "0",
        "type": "t_uint256"
      },
      {
        "astId": 2649,
        "contract": "contracts/test/MockL2Messenger.sol:MockL2Messenger",
        "label": "xDomainMsgSender",
        "offset": 0,
        "slot": "1",
        "type": "t_address"
      },
      {
        "astId": 2651,
        "contract": "contracts/test/MockL2Messenger.sol:MockL2Messenger",
        "label": "l1CrossDomainMessenger",
        "offset": 0,
        "slot": "2",
        "type": "t_address"
      }
    ],
    "types": {
      "t_address": {
        "encoding": "inplace",
        "label": "address",
        "numberOfBytes": "20"
      },
      "t_uint256": {
        "encoding": "inplace",
        "label": "uint256",
        "numberOfBytes": "32"
      }
    }
  }
}